{
  "contractName": "ProductManagement",
  "abi": [
    {
      "anonymous": false,
      "inputs": [
        {
          "indexed": true,
          "internalType": "address",
          "name": "manufacturer",
          "type": "address"
        },
        {
          "indexed": false,
          "internalType": "string",
          "name": "productId",
          "type": "string"
        }
      ],
      "name": "ProductAdded",
      "type": "event"
    },
    {
      "inputs": [
        {
          "internalType": "address",
          "name": "",
          "type": "address"
        },
        {
          "internalType": "uint256",
          "name": "",
          "type": "uint256"
        }
      ],
      "name": "manufacturerProducts",
      "outputs": [
        {
          "internalType": "string",
          "name": "",
          "type": "string"
        }
      ],
      "stateMutability": "view",
      "type": "function",
      "constant": true
    },
    {
      "inputs": [
        {
          "internalType": "string",
          "name": "",
          "type": "string"
        }
      ],
      "name": "products",
      "outputs": [
        {
          "internalType": "address",
          "name": "manufacturer",
          "type": "address"
        },
        {
          "internalType": "string",
          "name": "productId",
          "type": "string"
        },
        {
          "internalType": "string",
          "name": "productName",
          "type": "string"
        },
        {
          "internalType": "string",
          "name": "manufactureDate",
          "type": "string"
        },
        {
          "internalType": "string",
          "name": "imageHash",
          "type": "string"
        }
      ],
      "stateMutability": "view",
      "type": "function",
      "constant": true
    },
    {
      "inputs": [
        {
          "internalType": "address",
          "name": "manufacturer",
          "type": "address"
        },
        {
          "internalType": "string",
          "name": "productId",
          "type": "string"
        },
        {
          "internalType": "string",
          "name": "productName",
          "type": "string"
        },
        {
          "internalType": "string",
          "name": "manufactureDate",
          "type": "string"
        },
        {
          "internalType": "string",
          "name": "imageHash",
          "type": "string"
        }
      ],
      "name": "addProduct",
      "outputs": [],
      "stateMutability": "nonpayable",
      "type": "function"
    },
    {
      "inputs": [
        {
          "internalType": "address",
          "name": "manufacturer",
          "type": "address"
        }
      ],
      "name": "getProductsByManufacturer",
      "outputs": [
        {
          "internalType": "string[]",
          "name": "",
          "type": "string[]"
        }
      ],
      "stateMutability": "view",
      "type": "function",
      "constant": true
    },
    {
      "inputs": [
        {
          "internalType": "string",
          "name": "productId",
          "type": "string"
        }
      ],
      "name": "getProductDetails",
      "outputs": [
        {
          "internalType": "address",
          "name": "",
          "type": "address"
        },
        {
          "internalType": "string",
          "name": "",
          "type": "string"
        },
        {
          "internalType": "string",
          "name": "",
          "type": "string"
        },
        {
          "internalType": "string",
          "name": "",
          "type": "string"
        },
        {
          "internalType": "string",
          "name": "",
          "type": "string"
        }
      ],
      "stateMutability": "view",
      "type": "function",
      "constant": true
    }
  ],
  "bytecode": "0x608060405234801561001057600080fd5b50611532806100206000396000f3fe608060405234801561001057600080fd5b50600436106100575760003560e01c80630186a4231461005c578063198c59b0146100905780635fe2b9ce146100c4578063849df74a146100f4578063e5e20ac914610124575b600080fd5b61007660048036038101906100719190610c71565b610140565b604051610087959493929190610d7a565b60405180910390f35b6100aa60048036038101906100a59190610c71565b6103cc565b6040516100bb959493929190610d7a565b60405180910390f35b6100de60048036038101906100d99190610e4b565b610713565b6040516100eb9190610e8b565b60405180910390f35b61010e60048036038101906101099190610ead565b6107cc565b60405161011b9190610fe6565b60405180910390f35b61013e60048036038101906101399190611008565b6108e4565b005b6000818051602081018201805184825260208301602085012081835280955050505050506000915090508060000160009054906101000a900473ffffffffffffffffffffffffffffffffffffffff169080600101805461019f90611122565b80601f01602080910402602001604051908101604052809291908181526020018280546101cb90611122565b80156102185780601f106101ed57610100808354040283529160200191610218565b820191906000526020600020905b8154815290600101906020018083116101fb57829003601f168201915b50505050509080600201805461022d90611122565b80601f016020809104026020016040519081016040528092919081815260200182805461025990611122565b80156102a65780601f1061027b576101008083540402835291602001916102a6565b820191906000526020600020905b81548152906001019060200180831161028957829003601f168201915b5050505050908060030180546102bb90611122565b80601f01602080910402602001604051908101604052809291908181526020018280546102e790611122565b80156103345780601f1061030957610100808354040283529160200191610334565b820191906000526020600020905b81548152906001019060200180831161031757829003601f168201915b50505050509080600401805461034990611122565b80601f016020809104026020016040519081016040528092919081815260200182805461037590611122565b80156103c25780601f10610397576101008083540402835291602001916103c2565b820191906000526020600020905b8154815290600101906020018083116103a557829003601f168201915b5050505050905085565b6000606080606080600080876040516103e5919061118f565b90815260200160405180910390206040518060a00160405290816000820160009054906101000a900473ffffffffffffffffffffffffffffffffffffffff1673ffffffffffffffffffffffffffffffffffffffff1673ffffffffffffffffffffffffffffffffffffffff16815260200160018201805461046490611122565b80601f016020809104026020016040519081016040528092919081815260200182805461049090611122565b80156104dd5780601f106104b2576101008083540402835291602001916104dd565b820191906000526020600020905b8154815290600101906020018083116104c057829003601f168201915b505050505081526020016002820180546104f690611122565b80601f016020809104026020016040519081016040528092919081815260200182805461052290611122565b801561056f5780601f106105445761010080835404028352916020019161056f565b820191906000526020600020905b81548152906001019060200180831161055257829003601f168201915b5050505050815260200160038201805461058890611122565b80601f01602080910402602001604051908101604052809291908181526020018280546105b490611122565b80156106015780601f106105d657610100808354040283529160200191610601565b820191906000526020600020905b8154815290600101906020018083116105e457829003601f168201915b5050505050815260200160048201805461061a90611122565b80601f016020809104026020016040519081016040528092919081815260200182805461064690611122565b80156106935780601f1061066857610100808354040283529160200191610693565b820191906000526020600020905b81548152906001019060200180831161067657829003601f168201915b50505050508152505090506000816020015151036106e6576040517f08c379a00000000000000000000000000000000000000000000000000000000081526004016106dd906111f2565b60405180910390fd5b80600001518160200151826040015183606001518460800151955095509550955095505091939590929450565b6001602052816000526040600020818154811061072f57600080fd5b9060005260206000200160009150915050805461074b90611122565b80601f016020809104026020016040519081016040528092919081815260200182805461077790611122565b80156107c45780601f10610799576101008083540402835291602001916107c4565b820191906000526020600020905b8154815290600101906020018083116107a757829003601f168201915b505050505081565b6060600160008373ffffffffffffffffffffffffffffffffffffffff1673ffffffffffffffffffffffffffffffffffffffff168152602001908152602001600020805480602002602001604051908101604052809291908181526020016000905b828210156108d957838290600052602060002001805461084c90611122565b80601f016020809104026020016040519081016040528092919081815260200182805461087890611122565b80156108c55780601f1061089a576101008083540402835291602001916108c5565b820191906000526020600020905b8154815290600101906020018083116108a857829003601f168201915b50505050508152602001906001019061082d565b505050509050919050565b600080856040516108f5919061118f565b9081526020016040518091039020600101805461091190611122565b905014610953576040517f08c379a000000000000000000000000000000000000000000000000000000000815260040161094a9061125e565b60405180910390fd5b6040518060a001604052808673ffffffffffffffffffffffffffffffffffffffff168152602001858152602001848152602001838152602001828152506000856040516109a0919061118f565b908152602001604051809103902060008201518160000160006101000a81548173ffffffffffffffffffffffffffffffffffffffff021916908373ffffffffffffffffffffffffffffffffffffffff1602179055506020820151816001019081610a0a919061142a565b506040820151816002019081610a20919061142a565b506060820151816003019081610a36919061142a565b506080820151816004019081610a4c919061142a565b50905050600160008673ffffffffffffffffffffffffffffffffffffffff1673ffffffffffffffffffffffffffffffffffffffff16815260200190815260200160002084908060018154018082558091505060019003906000526020600020016000909190919091509081610ac1919061142a565b508473ffffffffffffffffffffffffffffffffffffffff167fa518d00b5a9101dfe2b168171d7513ff8da187b2c1a2945971af4fd8ea27918785604051610b089190610e8b565b60405180910390a25050505050565b6000604051905090565b600080fd5b600080fd5b600080fd5b600080fd5b6000601f19601f8301169050919050565b7f4e487b7100000000000000000000000000000000000000000000000000000000600052604160045260246000fd5b610b7e82610b35565b810181811067ffffffffffffffff82111715610b9d57610b9c610b46565b5b80604052505050565b6000610bb0610b17565b9050610bbc8282610b75565b919050565b600067ffffffffffffffff821115610bdc57610bdb610b46565b5b610be582610b35565b9050602081019050919050565b82818337600083830152505050565b6000610c14610c0f84610bc1565b610ba6565b905082815260208101848484011115610c3057610c2f610b30565b5b610c3b848285610bf2565b509392505050565b600082601f830112610c5857610c57610b2b565b5b8135610c68848260208601610c01565b91505092915050565b600060208284031215610c8757610c86610b21565b5b600082013567ffffffffffffffff811115610ca557610ca4610b26565b5b610cb184828501610c43565b91505092915050565b600073ffffffffffffffffffffffffffffffffffffffff82169050919050565b6000610ce582610cba565b9050919050565b610cf581610cda565b82525050565b600081519050919050565b600082825260208201905092915050565b60005b83811015610d35578082015181840152602081019050610d1a565b60008484015250505050565b6000610d4c82610cfb565b610d568185610d06565b9350610d66818560208601610d17565b610d6f81610b35565b840191505092915050565b600060a082019050610d8f6000830188610cec565b8181036020830152610da18187610d41565b90508181036040830152610db58186610d41565b90508181036060830152610dc98185610d41565b90508181036080830152610ddd8184610d41565b90509695505050505050565b610df281610cda565b8114610dfd57600080fd5b50565b600081359050610e0f81610de9565b92915050565b6000819050919050565b610e2881610e15565b8114610e3357600080fd5b50565b600081359050610e4581610e1f565b92915050565b60008060408385031215610e6257610e61610b21565b5b6000610e7085828601610e00565b9250506020610e8185828601610e36565b9150509250929050565b60006020820190508181036000830152610ea58184610d41565b905092915050565b600060208284031215610ec357610ec2610b21565b5b6000610ed184828501610e00565b91505092915050565b600081519050919050565b600082825260208201905092915050565b6000819050602082019050919050565b600082825260208201905092915050565b6000610f2282610cfb565b610f2c8185610f06565b9350610f3c818560208601610d17565b610f4581610b35565b840191505092915050565b6000610f5c8383610f17565b905092915050565b6000602082019050919050565b6000610f7c82610eda565b610f868185610ee5565b935083602082028501610f9885610ef6565b8060005b85811015610fd45784840389528151610fb58582610f50565b9450610fc083610f64565b925060208a01995050600181019050610f9c565b50829750879550505050505092915050565b600060208201905081810360008301526110008184610f71565b905092915050565b600080600080600060a0868803121561102457611023610b21565b5b600061103288828901610e00565b955050602086013567ffffffffffffffff81111561105357611052610b26565b5b61105f88828901610c43565b945050604086013567ffffffffffffffff8111156110805761107f610b26565b5b61108c88828901610c43565b935050606086013567ffffffffffffffff8111156110ad576110ac610b26565b5b6110b988828901610c43565b925050608086013567ffffffffffffffff8111156110da576110d9610b26565b5b6110e688828901610c43565b9150509295509295909350565b7f4e487b7100000000000000000000000000000000000000000000000000000000600052602260045260246000fd5b6000600282049050600182168061113a57607f821691505b60208210810361114d5761114c6110f3565b5b50919050565b600081905092915050565b600061116982610cfb565b6111738185611153565b9350611183818560208601610d17565b80840191505092915050565b600061119b828461115e565b915081905092915050565b7f50726f6475637420646f6573206e6f742065786973742e000000000000000000600082015250565b60006111dc601783610d06565b91506111e7826111a6565b602082019050919050565b6000602082019050818103600083015261120b816111cf565b9050919050565b7f50726f6475637420494420616c7265616479206578697374732e000000000000600082015250565b6000611248601a83610d06565b915061125382611212565b602082019050919050565b600060208201905081810360008301526112778161123b565b9050919050565b60008190508160005260206000209050919050565b60006020601f8301049050919050565b600082821b905092915050565b6000600883026112e07fffffffffffffffffffffffffffffffffffffffffffffffffffffffffffffffff826112a3565b6112ea86836112a3565b95508019841693508086168417925050509392505050565b6000819050919050565b600061132761132261131d84610e15565b611302565b610e15565b9050919050565b6000819050919050565b6113418361130c565b61135561134d8261132e565b8484546112b0565b825550505050565b600090565b61136a61135d565b611375818484611338565b505050565b5b818110156113995761138e600082611362565b60018101905061137b565b5050565b601f8211156113de576113af8161127e565b6113b884611293565b810160208510156113c7578190505b6113db6113d385611293565b83018261137a565b50505b505050565b600082821c905092915050565b6000611401600019846008026113e3565b1980831691505092915050565b600061141a83836113f0565b9150826002028217905092915050565b61143382610cfb565b67ffffffffffffffff81111561144c5761144b610b46565b5b6114568254611122565b61146182828561139d565b600060209050601f8311600181146114945760008415611482578287015190505b61148c858261140e565b8655506114f4565b601f1984166114a28661127e565b60005b828110156114ca578489015182556001820191506020850194506020810190506114a5565b868310156114e757848901516114e3601f8916826113f0565b8355505b6001600288020188555050505b50505050505056fea2646970667358221220cd876bd4309f4a9f78b962146a7c56f5f6888ae8c2ca64b84bf04cec945d5b9764736f6c63430008130033",
  "immutableReferences": {},
  "source": "// SPDX-License-Identifier: MIT\npragma solidity ^0.8.0;\n\ncontract ProductManagement {\n    struct Product {\n        address manufacturer;\n        string productId;\n        string productName;\n        string manufactureDate;\n        string imageHash;\n    }\n\n    mapping(string => Product) public products; // Mapping product ID to Product details\n    mapping(address => string[]) public manufacturerProducts; // Manufacturer to list of product IDs\n\n    event ProductAdded(address indexed manufacturer, string productId);\n\n    function addProduct(\n        address manufacturer,\n        string memory productId,\n        string memory productName,\n        string memory manufactureDate,\n        string memory imageHash\n    ) public {\n        require(bytes(products[productId].productId).length == 0, \"Product ID already exists.\");\n\n        // Create the product\n        products[productId] = Product({\n            manufacturer: manufacturer,\n            productId: productId,\n            productName: productName,\n            manufactureDate: manufactureDate,\n            imageHash: imageHash\n        });\n\n        // Link product ID to the manufacturer\n        manufacturerProducts[manufacturer].push(productId);\n\n        emit ProductAdded(manufacturer, productId);\n    }\n\n    function getProductsByManufacturer(address manufacturer) public view returns (string[] memory) {\n        return manufacturerProducts[manufacturer];\n    }\n\n    function getProductDetails(string memory productId) public view returns (\n        address, string memory, string memory, string memory, string memory\n    ) {\n        Product memory product = products[productId];\n        require(bytes(product.productId).length != 0, \"Product does not exist.\");\n        return (\n            product.manufacturer,\n            product.productId,\n            product.productName,\n            product.manufactureDate,\n            product.imageHash\n        );\n    }\n}\n",
  "sourcePath": "D:\\blockchain\\counterfeit-project\\contracts\\ProductManagement.sol",
  "compiler": {
    "name": "solc",
    "version": "0.8.19+commit.7dd6d404.Emscripten.clang"
  },
  "schemaVersion": "3.4.16",
  "updatedAt": "2025-01-15T10:35:51.311Z",
  "networkType": "ethereum",
  "devdoc": {
    "kind": "dev",
    "methods": {},
    "version": 1
  },
  "userdoc": {
    "kind": "user",
    "methods": {},
    "version": 1
  }
}