{
  "contractName": "ProductManagement",
  "abi": [
    {
      "anonymous": false,
      "inputs": [
        {
          "indexed": true,
          "internalType": "address",
          "name": "manufacturer",
          "type": "address"
        },
        {
          "indexed": false,
          "internalType": "string",
          "name": "productId",
          "type": "string"
        },
        {
          "indexed": false,
          "internalType": "string",
          "name": "productHash",
          "type": "string"
        }
      ],
      "name": "ProductAdded",
      "type": "event"
    },
    {
      "inputs": [
        {
          "internalType": "address",
          "name": "",
          "type": "address"
        },
        {
          "internalType": "uint256",
          "name": "",
          "type": "uint256"
        }
      ],
      "name": "manufacturerProducts",
      "outputs": [
        {
          "internalType": "string",
          "name": "",
          "type": "string"
        }
      ],
      "stateMutability": "view",
      "type": "function",
      "constant": true
    },
    {
      "inputs": [
        {
          "internalType": "string",
          "name": "",
          "type": "string"
        }
      ],
      "name": "productHashToId",
      "outputs": [
        {
          "internalType": "string",
          "name": "",
          "type": "string"
        }
      ],
      "stateMutability": "view",
      "type": "function",
      "constant": true
    },
    {
      "inputs": [
        {
          "internalType": "string",
          "name": "",
          "type": "string"
        }
      ],
      "name": "products",
      "outputs": [
        {
          "internalType": "address",
          "name": "manufacturer",
          "type": "address"
        },
        {
          "internalType": "string",
          "name": "productId",
          "type": "string"
        },
        {
          "internalType": "string",
          "name": "productName",
          "type": "string"
        },
        {
          "internalType": "string",
          "name": "manufactureDate",
          "type": "string"
        },
        {
          "internalType": "string",
          "name": "productHash",
          "type": "string"
        },
        {
          "internalType": "string",
          "name": "filePath",
          "type": "string"
        }
      ],
      "stateMutability": "view",
      "type": "function",
      "constant": true
    },
    {
      "inputs": [
        {
          "internalType": "address",
          "name": "manufacturer",
          "type": "address"
        },
        {
          "internalType": "string",
          "name": "productId",
          "type": "string"
        },
        {
          "internalType": "string",
          "name": "productName",
          "type": "string"
        },
        {
          "internalType": "string",
          "name": "manufactureDate",
          "type": "string"
        },
        {
          "internalType": "string",
          "name": "productHash",
          "type": "string"
        },
        {
          "internalType": "string",
          "name": "filePath",
          "type": "string"
        }
      ],
      "name": "addProduct",
      "outputs": [],
      "stateMutability": "nonpayable",
      "type": "function"
    },
    {
      "inputs": [
        {
          "internalType": "address",
          "name": "manufacturer",
          "type": "address"
        }
      ],
      "name": "getProductsByManufacturer",
      "outputs": [
        {
          "internalType": "string[]",
          "name": "",
          "type": "string[]"
        }
      ],
      "stateMutability": "view",
      "type": "function",
      "constant": true
    },
    {
      "inputs": [
        {
          "internalType": "string",
          "name": "productId",
          "type": "string"
        }
      ],
      "name": "getProductDetails",
      "outputs": [
        {
          "internalType": "address",
          "name": "",
          "type": "address"
        },
        {
          "internalType": "string",
          "name": "",
          "type": "string"
        },
        {
          "internalType": "string",
          "name": "",
          "type": "string"
        },
        {
          "internalType": "string",
          "name": "",
          "type": "string"
        },
        {
          "internalType": "string",
          "name": "",
          "type": "string"
        },
        {
          "internalType": "string",
          "name": "",
          "type": "string"
        }
      ],
      "stateMutability": "view",
      "type": "function",
      "constant": true
    },
    {
      "inputs": [
        {
          "internalType": "string",
          "name": "productHash",
          "type": "string"
        }
      ],
      "name": "getProductIdByHash",
      "outputs": [
        {
          "internalType": "string",
          "name": "",
          "type": "string"
        }
      ],
      "stateMutability": "view",
      "type": "function",
      "constant": true
    }
  ],
  "bytecode": "0x608060405234801561001057600080fd5b5061190e806100206000396000f3fe608060405234801561001057600080fd5b506004361061007d5760003560e01c80634671ab391161005b5780634671ab391461011c5780635fe2b9ce1461014c578063849df74a1461017c578063fc6ca3e8146101ac5761007d565b80630186a42314610082578063198c59b0146100b757806321f01cc4146100ec575b600080fd5b61009c60048036038101906100979190610fd3565b6101c8565b6040516100ae969594939291906110dc565b60405180910390f35b6100d160048036038101906100cc9190610fd3565b6104e2565b6040516100e3969594939291906110dc565b60405180910390f35b61010660048036038101906101019190610fd3565b6108c4565b6040516101139190611160565b60405180910390f35b61013660048036038101906101319190610fd3565b61097a565b6040516101439190611160565b60405180910390f35b610166600480360381019061016191906111e4565b610a2a565b6040516101739190611160565b60405180910390f35b61019660048036038101906101919190611224565b610ae3565b6040516101a3919061135d565b60405180910390f35b6101c660048036038101906101c1919061137f565b610bfb565b005b6000818051602081018201805184825260208301602085012081835280955050505050506000915090508060000160009054906101000a900473ffffffffffffffffffffffffffffffffffffffff1690806001018054610227906114c7565b80601f0160208091040260200160405190810160405280929190818152602001828054610253906114c7565b80156102a05780601f10610275576101008083540402835291602001916102a0565b820191906000526020600020905b81548152906001019060200180831161028357829003601f168201915b5050505050908060020180546102b5906114c7565b80601f01602080910402602001604051908101604052809291908181526020018280546102e1906114c7565b801561032e5780601f106103035761010080835404028352916020019161032e565b820191906000526020600020905b81548152906001019060200180831161031157829003601f168201915b505050505090806003018054610343906114c7565b80601f016020809104026020016040519081016040528092919081815260200182805461036f906114c7565b80156103bc5780601f10610391576101008083540402835291602001916103bc565b820191906000526020600020905b81548152906001019060200180831161039f57829003601f168201915b5050505050908060040180546103d1906114c7565b80601f01602080910402602001604051908101604052809291908181526020018280546103fd906114c7565b801561044a5780601f1061041f5761010080835404028352916020019161044a565b820191906000526020600020905b81548152906001019060200180831161042d57829003601f168201915b50505050509080600501805461045f906114c7565b80601f016020809104026020016040519081016040528092919081815260200182805461048b906114c7565b80156104d85780601f106104ad576101008083540402835291602001916104d8565b820191906000526020600020905b8154815290600101906020018083116104bb57829003601f168201915b5050505050905086565b60006060806060806060600080886040516104fd9190611534565b90815260200160405180910390206040518060c00160405290816000820160009054906101000a900473ffffffffffffffffffffffffffffffffffffffff1673ffffffffffffffffffffffffffffffffffffffff1673ffffffffffffffffffffffffffffffffffffffff16815260200160018201805461057c906114c7565b80601f01602080910402602001604051908101604052809291908181526020018280546105a8906114c7565b80156105f55780601f106105ca576101008083540402835291602001916105f5565b820191906000526020600020905b8154815290600101906020018083116105d857829003601f168201915b5050505050815260200160028201805461060e906114c7565b80601f016020809104026020016040519081016040528092919081815260200182805461063a906114c7565b80156106875780601f1061065c57610100808354040283529160200191610687565b820191906000526020600020905b81548152906001019060200180831161066a57829003601f168201915b505050505081526020016003820180546106a0906114c7565b80601f01602080910402602001604051908101604052809291908181526020018280546106cc906114c7565b80156107195780601f106106ee57610100808354040283529160200191610719565b820191906000526020600020905b8154815290600101906020018083116106fc57829003601f168201915b50505050508152602001600482018054610732906114c7565b80601f016020809104026020016040519081016040528092919081815260200182805461075e906114c7565b80156107ab5780601f10610780576101008083540402835291602001916107ab565b820191906000526020600020905b81548152906001019060200180831161078e57829003601f168201915b505050505081526020016005820180546107c4906114c7565b80601f01602080910402602001604051908101604052809291908181526020018280546107f0906114c7565b801561083d5780601f106108125761010080835404028352916020019161083d565b820191906000526020600020905b81548152906001019060200180831161082057829003601f168201915b5050505050815250509050600081602001515103610890576040517f08c379a000000000000000000000000000000000000000000000000000000000815260040161088790611597565b60405180910390fd5b806000015181602001518260400151836060015184608001518560a001519650965096509650965096505091939550919395565b60028180516020810182018051848252602083016020850120818352809550505050505060009150905080546108f9906114c7565b80601f0160208091040260200160405190810160405280929190818152602001828054610925906114c7565b80156109725780601f1061094757610100808354040283529160200191610972565b820191906000526020600020905b81548152906001019060200180831161095557829003601f168201915b505050505081565b606060028260405161098c9190611534565b908152602001604051809103902080546109a5906114c7565b80601f01602080910402602001604051908101604052809291908181526020018280546109d1906114c7565b8015610a1e5780601f106109f357610100808354040283529160200191610a1e565b820191906000526020600020905b815481529060010190602001808311610a0157829003601f168201915b50505050509050919050565b60016020528160005260406000208181548110610a4657600080fd5b90600052602060002001600091509150508054610a62906114c7565b80601f0160208091040260200160405190810160405280929190818152602001828054610a8e906114c7565b8015610adb5780601f10610ab057610100808354040283529160200191610adb565b820191906000526020600020905b815481529060010190602001808311610abe57829003601f168201915b505050505081565b6060600160008373ffffffffffffffffffffffffffffffffffffffff1673ffffffffffffffffffffffffffffffffffffffff168152602001908152602001600020805480602002602001604051908101604052809291908181526020016000905b82821015610bf0578382906000526020600020018054610b63906114c7565b80601f0160208091040260200160405190810160405280929190818152602001828054610b8f906114c7565b8015610bdc5780601f10610bb157610100808354040283529160200191610bdc565b820191906000526020600020905b815481529060010190602001808311610bbf57829003601f168201915b505050505081526020019060010190610b44565b505050509050919050565b60008086604051610c0c9190611534565b90815260200160405180910390206001018054610c28906114c7565b905014610c6a576040517f08c379a0000000000000000000000000000000000000000000000000000000008152600401610c6190611603565b60405180910390fd5b6040518060c001604052808773ffffffffffffffffffffffffffffffffffffffff16815260200186815260200185815260200184815260200183815260200182815250600086604051610cbd9190611534565b908152602001604051809103902060008201518160000160006101000a81548173ffffffffffffffffffffffffffffffffffffffff021916908373ffffffffffffffffffffffffffffffffffffffff1602179055506020820151816001019081610d2791906117cf565b506040820151816002019081610d3d91906117cf565b506060820151816003019081610d5391906117cf565b506080820151816004019081610d6991906117cf565b5060a0820151816005019081610d7f91906117cf565b5090505084600283604051610d949190611534565b90815260200160405180910390209081610dae91906117cf565b50600160008773ffffffffffffffffffffffffffffffffffffffff1673ffffffffffffffffffffffffffffffffffffffff16815260200190815260200160002085908060018154018082558091505060019003906000526020600020016000909190919091509081610e2091906117cf565b508573ffffffffffffffffffffffffffffffffffffffff167fcabd26c50db670521273552a58a9f3298776c8522801103d9fa3a65d3d903c1c8684604051610e699291906118a1565b60405180910390a2505050505050565b6000604051905090565b600080fd5b600080fd5b600080fd5b600080fd5b6000601f19601f8301169050919050565b7f4e487b7100000000000000000000000000000000000000000000000000000000600052604160045260246000fd5b610ee082610e97565b810181811067ffffffffffffffff82111715610eff57610efe610ea8565b5b80604052505050565b6000610f12610e79565b9050610f1e8282610ed7565b919050565b600067ffffffffffffffff821115610f3e57610f3d610ea8565b5b610f4782610e97565b9050602081019050919050565b82818337600083830152505050565b6000610f76610f7184610f23565b610f08565b905082815260208101848484011115610f9257610f91610e92565b5b610f9d848285610f54565b509392505050565b600082601f830112610fba57610fb9610e8d565b5b8135610fca848260208601610f63565b91505092915050565b600060208284031215610fe957610fe8610e83565b5b600082013567ffffffffffffffff81111561100757611006610e88565b5b61101384828501610fa5565b91505092915050565b600073ffffffffffffffffffffffffffffffffffffffff82169050919050565b60006110478261101c565b9050919050565b6110578161103c565b82525050565b600081519050919050565b600082825260208201905092915050565b60005b8381101561109757808201518184015260208101905061107c565b60008484015250505050565b60006110ae8261105d565b6110b88185611068565b93506110c8818560208601611079565b6110d181610e97565b840191505092915050565b600060c0820190506110f1600083018961104e565b818103602083015261110381886110a3565b9050818103604083015261111781876110a3565b9050818103606083015261112b81866110a3565b9050818103608083015261113f81856110a3565b905081810360a083015261115381846110a3565b9050979650505050505050565b6000602082019050818103600083015261117a81846110a3565b905092915050565b61118b8161103c565b811461119657600080fd5b50565b6000813590506111a881611182565b92915050565b6000819050919050565b6111c1816111ae565b81146111cc57600080fd5b50565b6000813590506111de816111b8565b92915050565b600080604083850312156111fb576111fa610e83565b5b600061120985828601611199565b925050602061121a858286016111cf565b9150509250929050565b60006020828403121561123a57611239610e83565b5b600061124884828501611199565b91505092915050565b600081519050919050565b600082825260208201905092915050565b6000819050602082019050919050565b600082825260208201905092915050565b60006112998261105d565b6112a3818561127d565b93506112b3818560208601611079565b6112bc81610e97565b840191505092915050565b60006112d3838361128e565b905092915050565b6000602082019050919050565b60006112f382611251565b6112fd818561125c565b93508360208202850161130f8561126d565b8060005b8581101561134b578484038952815161132c85826112c7565b9450611337836112db565b925060208a01995050600181019050611313565b50829750879550505050505092915050565b6000602082019050818103600083015261137781846112e8565b905092915050565b60008060008060008060c0878903121561139c5761139b610e83565b5b60006113aa89828a01611199565b965050602087013567ffffffffffffffff8111156113cb576113ca610e88565b5b6113d789828a01610fa5565b955050604087013567ffffffffffffffff8111156113f8576113f7610e88565b5b61140489828a01610fa5565b945050606087013567ffffffffffffffff81111561142557611424610e88565b5b61143189828a01610fa5565b935050608087013567ffffffffffffffff81111561145257611451610e88565b5b61145e89828a01610fa5565b92505060a087013567ffffffffffffffff81111561147f5761147e610e88565b5b61148b89828a01610fa5565b9150509295509295509295565b7f4e487b7100000000000000000000000000000000000000000000000000000000600052602260045260246000fd5b600060028204905060018216806114df57607f821691505b6020821081036114f2576114f1611498565b5b50919050565b600081905092915050565b600061150e8261105d565b61151881856114f8565b9350611528818560208601611079565b80840191505092915050565b60006115408284611503565b915081905092915050565b7f50726f6475637420646f6573206e6f742065786973742e000000000000000000600082015250565b6000611581601783611068565b915061158c8261154b565b602082019050919050565b600060208201905081810360008301526115b081611574565b9050919050565b7f50726f6475637420494420616c7265616479206578697374732e000000000000600082015250565b60006115ed601a83611068565b91506115f8826115b7565b602082019050919050565b6000602082019050818103600083015261161c816115e0565b9050919050565b60008190508160005260206000209050919050565b60006020601f8301049050919050565b600082821b905092915050565b6000600883026116857fffffffffffffffffffffffffffffffffffffffffffffffffffffffffffffffff82611648565b61168f8683611648565b95508019841693508086168417925050509392505050565b6000819050919050565b60006116cc6116c76116c2846111ae565b6116a7565b6111ae565b9050919050565b6000819050919050565b6116e6836116b1565b6116fa6116f2826116d3565b848454611655565b825550505050565b600090565b61170f611702565b61171a8184846116dd565b505050565b5b8181101561173e57611733600082611707565b600181019050611720565b5050565b601f8211156117835761175481611623565b61175d84611638565b8101602085101561176c578190505b61178061177885611638565b83018261171f565b50505b505050565b600082821c905092915050565b60006117a660001984600802611788565b1980831691505092915050565b60006117bf8383611795565b9150826002028217905092915050565b6117d88261105d565b67ffffffffffffffff8111156117f1576117f0610ea8565b5b6117fb82546114c7565b611806828285611742565b600060209050601f8311600181146118395760008415611827578287015190505b61183185826117b3565b865550611899565b601f19841661184786611623565b60005b8281101561186f5784890151825560018201915060208501945060208101905061184a565b8683101561188c5784890151611888601f891682611795565b8355505b6001600288020188555050505b505050505050565b600060408201905081810360008301526118bb81856110a3565b905081810360208301526118cf81846110a3565b9050939250505056fea2646970667358221220229e7d9bf44a8d59c56a08456d4848c95af7e4aa4e89532171dad5fd2427d8b764736f6c63430008130033",
  "immutableReferences": {},
  "source": "// SPDX-License-Identifier: MIT\npragma solidity ^0.8.0;\n\ncontract ProductManagement {\n    struct Product {\n        address manufacturer;    // Address of the product manufacturer\n        string productId;        // Unique identifier for the product\n        string productName;      // Name of the product\n        string manufactureDate;  // Date of manufacture\n        string productHash;      // Hash value uniquely identifying the product\n        string filePath;         // Optional file path related to the product (e.g., additional data or docs)\n    }\n\n    mapping(string => Product) public products; // Mapping product ID to Product details\n    mapping(address => string[]) public manufacturerProducts; // Manufacturer to list of product IDs\n    mapping(string => string) public productHashToId; // Map productHash to productId\n\n    event ProductAdded(address indexed manufacturer, string productId, string productHash);\n\n    /// @notice Add a new product to the contract.\n    /// @param manufacturer The address of the manufacturer.\n    /// @param productId A unique identifier for the product.\n    /// @param productName The name of the product.\n    /// @param manufactureDate The manufacture date of the product.\n    /// @param productHash A unique hash representing the product.\n    /// @param filePath An optional file path related to the product.\n    function addProduct(\n        address manufacturer,\n        string memory productId,\n        string memory productName,\n        string memory manufactureDate,\n        string memory productHash,\n        string memory filePath\n    ) public {\n        require(bytes(products[productId].productId).length == 0, \"Product ID already exists.\");\n\n        // Create the product\n        products[productId] = Product({\n            manufacturer: manufacturer,\n            productId: productId,\n            productName: productName,\n            manufactureDate: manufactureDate,\n            productHash: productHash,\n            filePath: filePath\n        });\n\n        // Map product hash to product ID\n        productHashToId[productHash] = productId;\n\n        // Link product ID to the manufacturer\n        manufacturerProducts[manufacturer].push(productId);\n\n        emit ProductAdded(manufacturer, productId, productHash);\n    }\n\n    /// @notice Get a list of products added by a manufacturer.\n    /// @param manufacturer The address of the manufacturer.\n    /// @return An array of product IDs.\n    function getProductsByManufacturer(address manufacturer) public view returns (string[] memory) {\n        return manufacturerProducts[manufacturer];\n    }\n\n    /// @notice Get the details of a product by its ID.\n    /// @param productId The unique identifier of the product.\n    /// @return The details of the product (manufacturer, productId, productName, manufactureDate, productHash, filePath).\n    function getProductDetails(string memory productId) public view returns (\n        address,\n        string memory,\n        string memory,\n        string memory,\n        string memory,\n        string memory\n    ) {\n        Product memory product = products[productId];\n        require(bytes(product.productId).length != 0, \"Product does not exist.\");\n        return (\n            product.manufacturer,\n            product.productId,\n            product.productName,\n            product.manufactureDate,\n            product.productHash,\n            product.filePath\n        );\n    }\n\n    /// @notice Get the product ID by its hash.\n    /// @param productHash The unique hash representing the product.\n    /// @return The product ID associated with the hash.\n    function getProductIdByHash(string memory productHash) public view returns (string memory) {\n        return productHashToId[productHash];\n    }\n}\n",
  "sourcePath": "D:\\blockchain\\counterfeit-project\\contracts\\ProductManagement.sol",
  "compiler": {
    "name": "solc",
    "version": "0.8.19+commit.7dd6d404.Emscripten.clang"
  },
  "schemaVersion": "3.4.16",
  "updatedAt": "2025-01-15T16:24:30.481Z",
  "networkType": "ethereum",
  "devdoc": {
    "kind": "dev",
    "methods": {
      "addProduct(address,string,string,string,string,string)": {
        "params": {
          "filePath": "An optional file path related to the product.",
          "manufactureDate": "The manufacture date of the product.",
          "manufacturer": "The address of the manufacturer.",
          "productHash": "A unique hash representing the product.",
          "productId": "A unique identifier for the product.",
          "productName": "The name of the product."
        }
      },
      "getProductDetails(string)": {
        "params": {
          "productId": "The unique identifier of the product."
        },
        "returns": {
          "_0": "The details of the product (manufacturer, productId, productName, manufactureDate, productHash, filePath)."
        }
      },
      "getProductIdByHash(string)": {
        "params": {
          "productHash": "The unique hash representing the product."
        },
        "returns": {
          "_0": "The product ID associated with the hash."
        }
      },
      "getProductsByManufacturer(address)": {
        "params": {
          "manufacturer": "The address of the manufacturer."
        },
        "returns": {
          "_0": "An array of product IDs."
        }
      }
    },
    "version": 1
  },
  "userdoc": {
    "kind": "user",
    "methods": {
      "addProduct(address,string,string,string,string,string)": {
        "notice": "Add a new product to the contract."
      },
      "getProductDetails(string)": {
        "notice": "Get the details of a product by its ID."
      },
      "getProductIdByHash(string)": {
        "notice": "Get the product ID by its hash."
      },
      "getProductsByManufacturer(address)": {
        "notice": "Get a list of products added by a manufacturer."
      }
    },
    "version": 1
  }
}